:100000000C94BF020C9468100C9495100C94E702A9
:100010000C94E7020C94E7020C94E7020C94E702BC
:100020000C94E7020C94E7020C94E7020C94E702AC
:100030000C94E7020C94E7020C94E7020C94E7029C
:100040000C94C2100C94E7020C94A4130C94D613D5
:100050000C94E7020C94E7020C94E7020C94E7027C
:100060000C94D30D0C94E70266616E3A20436861EC
:100070006E67656420737065656420746F20006925
:100080006E7075743A20436F6D6D616E64206368A5
:10009000616E67656420737065656420746F20000D
:1000A000446973706C61793A20006D6F64653A2021
:1000B0006D616E75616C006D6F64653A2061757479
:1000C0006F00206465746563746564004E6F20532F
:1000D00049373032780053656E736F723A2000688A
:1000E000756D69646974795F736574706F696E7436
:1000F0005F68693A200068756D69646974795F7337
:100100006574706F696E745F6C6F3A200068756D0E
:1001100069646974795F636F6E74726F6C5F6D6F21
:1001200064653A200073706565645F73656C656330
:10013000745F66616E3A200073706565645F736515
:100140006C6563745F68756D69646974793A2000E1
:1001500073706565645F73656C6563745F75736503
:10016000723A2000467265652052414D3A20000ADD
:100170005374617475733A0A00496E76616C6964F0
:100180000053504545445F330053504545445F326A
:100190000053504545445F310053504545445F305E
:1001A0000053504545445F554E444546494E4544ED
:1001B00000536C65657079207761746368646F675C
:1001C0003F3F3F000A48616E6775702E2E2E2074E7
:1001D0006F2074657374207761746368646F672E31
:1001E0002E2E0A0068756D69646974793A20436837
:1001F000616E67656420737065656420746F2000AC
:1002000048756D6964697479204849474820546984
:100210006D657220657870697265642E2E20746930
:100220006D6520746F2072616D702075702100689B
:10023000756D69646974793A204368616E676564B5
:1002400020737065656420746F200048756D696463
:10025000697479204C4F572054696D657220657818
:1002600070697265642E2E2074696D6520746F202C
:1002700072616D7020646F776E21006462673A204E
:1002800063616E63656C2074696D65722048554DBD
:1002900049444954592048494748006462673A2014
:1002A00063616E63656C2074696D65722048554D9D
:1002B0004944495459204C4F57006462673A2063BF
:1002C000616E63656C2074696D65722048554D4997
:1002D000444954592048494748006462673A2073AA
:1002E000746172742074696D65722048554D49447B
:1002F0004954592048494748006462673A2063617D
:100300006E63656C2074696D65722048554D494473
:10031000495459204C4F57006462673A2073746106
:1003200072742074696D65722048554D4944495472
:1003300059204C4F570048756D69646974793A20AB
:100340002020200054656D70657261747572653A85
:10035000200053656E64204C6966657369676E2082
:100360006D65737361676500696E7075743A2053CB
:100370007769746368206368616E67656420737071
:1003800065656420746F20002048756D6964697428
:10039000792053656E736F7220646574656374654C
:1003A00064004E6F20534937303278000A4176613D
:1003B000696C61626C6520636F6D6D616E64733A28
:1003C0000A2064697370205B635D202D206469736B
:1003D000706C6179206368617261637465720A2070
:1003E0007370656564205B735D202D2073657420D8
:1003F000435645207370656564205B302C312C3288
:100400002C335D0A20737461747573202D20646928
:1004100073706C61792063757272656E7420737489
:10042000617475730A206175746F202D20656E618B
:10043000626C65206175746F6D61746963206875A5
:100440006D696469747920636F6E74726F6C0A20D1
:100450006D616E75616C202D2064697361626C65DD
:10046000206175746F6D617469632068756D69646E
:1004700069747920636F6E74726F6C0A2068616EA4
:1004800067202D2074657374207761746368646FCE
:10049000670A2068656C6C6F205B6E616D655D0A34
:1004A0002070203C617267313E203C617267323EB1
:1004B0000A203F20202D2073686F772074686973AD
:1004C0002068656C700A0A00467265652052414DCD
:1004D0003A2020200030303A34393A333900206154
:1004E0007420005365702031392032303136002CB1
:1004F00020436F6D70696C6564206F6E3A20000A4E
:100500000A536B657463683A20004356455F436F36
:100510006E74726F6C6C65722E696E6F00000000F5
:1005200008000201000003040700000000000000B2
:10053000000102040810204080010204081020017C
:100540000204081020040404040404040402020247
:10055000020202030303030303000000002300263A
:1005600000290000000000250028002B00000000EA
:1005700000240027002A00001B0AF10C0614112495
:100580001FBECFEFD8E0DEBFCDBF11E0A0E0B1E0ED
:10059000EEECF8E302C005900D92A63AB107D9F748
:1005A00023E0A6EAB1E001C01D92AF35B207E1F742
:1005B00015E0CEE7D5E004C02297FE010E94C319E2
:1005C000C837D107C9F70E944A140C94651C0C94D3
:1005D000000067EB70E08EEB92E00E94D71481E0A0
:1005E0008093220108956AEA70E08EEB92E00E9407
:1005F000D714109222010895CF93DF9364EC71E039
:100600008EEB92E00E94D714C1E0D0E04AE050E0C7
:10061000BE018EEB92E00E94B81568EE73E080E0B8
:1006200090E00E943B112196CC33D10579F761EB24
:1006300071E08EEB92E0DF91CF910C94D714CF93C1
:10064000DF938EEA91E00E94850B009709F1DC01AF
:10065000EC91E053E430E0F4F0E0E059FE4FC0816B
:10066000DD27C7FDD095CF3FBFEFDB0789F06FE7F0
:1006700070E08EEB92E00E9497144AE050E0BE01D9
:100680008EEB92E00E94B815D0930F01C0930E013B
:10069000DF91CF910895CF93DF9300D0CDB7DEB730
:1006A00020915B0330915C032115310511F42FE596
:1006B00033E0CE010196821B930B0F900F90DF91D8
:1006C000CF910895482F20E030E08FEF9FEFFB019E
:1006D000E20FF31FE491E41719F0E11102C008954D
:1006E000C9012F5F3F4FF3CF0F931F93CF93DF933A
:1006F0006AE075E08FE20E946203EC0197FF06C09A
:100700006AE075E08CE50E946203EC016AE075E046
:100710008EE20E9462038C0197FF06C06AE075E0DA
:1007200080E00E9462038C016FEF74E08EEB92E038
:100730000E9497142196C017D1075CF4FE01E65F72
:10074000FA4F6491662329F08EEB92E00E94CC145C
:10075000F1CF6FEE74E08EEB92E00E94971463EE9F
:1007600074E08EEB92E00E9497146EED74E08EEBD5
:1007700092E00E94971465ED74E08EEB92E0DF91B9
:10078000CF911F910F910C94D7140E94740368ECC1
:1007900074E08EEB92E00E9497140E944B034AE0B3
:1007A00050E0BC018EEB92E00E94B8156CEA73E059
:1007B0008EEB92E00C94D7140C94C503A89544E1F9
:1007C00050E060E08CED91E00E94E50A8091AA0182
:1007D0009091AB0181309105C1F01CF4892B39F067
:1007E000089582309105F9F0039779F1089560E05A
:1007F0008DE00E94001241E050E060E08CED91E05D
:100800000E94E50A81E090E01BC061E08DE00E945B
:10081000001242E050E060E08CED91E00E94E50AB9
:1008200082E090E00DC060E08DE00E94001241E0A7
:1008300050E060E08CED91E00E94E50A83E090E0FA
:100840009093AB018093AA01089561E08DE00E942E
:1008500000124AE050E060E08CED91E00E94E50A71
:100860001092AB011092AA010895CF93DF93EC018F
:1008700061307105B1F04CF46F3F8FEF780771F084
:10088000672BA9F469E971E014C06230710561F069
:100890006330710561F461E871E00BC061EA71E0F9
:1008A00008C061E971E005C069E871E002C069E76C
:1008B00071E0CE010E945C17CE01DF91CF910895C7
:1008C000CF93DF9300D000D000D0CDB7DEB76FE676
:1008D00071E08EEB92E00E94D71464E671E08EEB3B
:1008E00092E00E9497140E944B034AE050E0BC0142
:1008F0008EEB92E00E94B81560E571E08EEB92E01D
:100900000E94971460910E0170910F01CE01019623
:100910000E943504BE016F5F7F4F8EEB92E00E9414
:10092000E914CE0101960E94CD1668E371E08EEBCA
:1009300092E00E94971460910C0170910D01CE011C
:1009400001960E943504BE016F5F7F4F8EEB92E0EF
:100950000E94E914CE0101960E94CD1665E271E075
:100960008EEB92E00E94971460910A0170910B0146
:10097000CE0101960E943504BE016F5F7F4F8EEB62
:1009800092E00E94E914CE0101960E94CD166DE01E
:1009900071E08EEB92E00E9497146091220170E06A
:1009A0004AE050E08EEB92E00E94B81566EF70E0EE
:1009B0008EEB92E00E94971440911E0150911F010E
:1009C000609120017091210122E030E08EEB92E0F5
:1009D0000E94BB166FED70E08EEB92E00E949714C0
:1009E00040911A0150911B0160911C0170911D01F1
:1009F00022E030E08EEB92E00E94BB1666ED70E0E4
:100A00008EEB92E00E9497148AED91E00E94170FFE
:100A10008823B9F06CE271E08EEB92E00E94CA1478
:100A20008AED91E00E944E104AE050E0BC018EEB4E
:100A300092E00E94B01560E08AED91E00E94410FC3
:100A400006C06CEC70E08EEB92E00E94971462ECB2
:100A500070E08EEB92E00E94D7148AED91E00E9444
:100A6000170F882309F440C08AED91E00E94E00F3F
:100A700029833A834B835C836D837E8361E371E0DA
:100A80008EEB92E00E94CA1469817A81882777FDF3
:100A90008095982F0E946A1820E030E048EC52E4DC
:100AA0000E94CF17AB01BC0122E030E08EEB92E058
:100AB0000E94BB166FE371E08EEB92E00E94CA14B5
:100AC0006D817E8180E090E00E94681820E030E037
:100AD00048EC52E40E94CF17AB01BC0122E030E0A9
:100AE0008EEB92E00E94BB1626960FB6F894DEBFFE
:100AF0000FBECDBFDF91CF910895823309F441C07D
:100B00007CF4803341F1813309F079C061E086E003
:100B10000E94001260E087E00E94001260E078C04E
:100B2000883309F444C0883409F44FC0833309F092
:100B300066C060E086E00E94001260E087E00E94EC
:100B4000001260E088E00E94001260E089E00E94EC
:100B5000001261E027C060E086E00E94001260E0C1
:100B600087E00E94001260E088E00E94001260E0CE
:100B700089E00E94001260E08AE00E94001260E0BA
:100B800053C060E086E00E94001260E087E00E94AF
:100B9000001261E088E00E94001260E089E00E949B
:100BA000001260E08AE00E94001261E023C060E071
:100BB00086E00E94001260E087E00E94001260E080
:100BC00088E00E94001260E00DC061E086E00E94B3
:100BD000001260E087E00E94001260E088E00E945E
:100BE000001261E089E00E94001260E08AE00E9449
:100BF000001260E08BE00E94001260E019C061E02A
:100C000086E00E94001261E087E00E94001261E02D
:100C100088E00E94001261E089E00E94001261E019
:100C20008AE00E94001261E08BE00E94001261E005
:100C30008CE00C94001229E288E190E00FB6F89461
:100C4000A895809360000FBE2093600061E08DE066
:100C50000E94C71160E08DE00E94001241E050E068
:100C600060E08CED91E00E94E50A26E040E052EC65
:100C700061E070E08EEB92E00E9442130E94C50397
:100C80008AED91E00E94010F8AED91E00E94170F1A
:100C90008823B9F06CE271E08EEB92E00E94CA14F6
:100CA0008AED91E00E944E104AE050E0BC018EEBCC
:100CB00092E00E94B01560E08AED91E00E94410F41
:100CC00006C062EA73E08EEB92E00E94971468E837
:100CD00073E08EEB92E00E94D71441E050E062E0B6
:100CE0008CED91E00E94E50A41E050E065E08CED7A
:100CF00091E00E94E50A61E082E00E94C71161E094
:100D000083E00E94C71161E084E00E94C71161E0A6
:100D100085E00E94C71161E082E00E94001261E05C
:100D200083E00E94001261E084E00E94001261E012
:100D300085E00E94001262E08EE00E94C71162E02E
:100D40008FE00E94C71161E086E00E94C71161E058
:100D500087E00E94C71161E088E00E94C71161E04E
:100D600089E00E94C71161E08AE00E94C71161E03A
:100D70008BE00E94C71161E08CE00E94C71161E026
:100D80008DE00E94C71180E20E947D0564E670E05C
:100D900080E090E00E943B1161E08DE00E94001233
:100DA00088E30E947D0564EF71E080E090E00E949E
:100DB0003B1180E20E947D0564EF71E080E090E0ED
:100DC0000E943B114CEF52E06DE471E08EEA91E03D
:100DD0000E944A0B40E654E062E571E08EEA91E041
:100DE0000E944A0B49EE52E069E571E08EEA91E01B
:100DF0000E944A0B43EF52E06EE571E08EEA91E00B
:100E00000E944A0B48E157E065E671E08EEA91E006
:100E10000E944A0B4FE153E06AE671E08EEA91E0EE
:100E20000E944A0B6CED73E08EEA91E00C94810B0A
:100E3000CF938EEA91E00E94850B009789F0FC0128
:100E4000C08160EA70E08EEB92E00E9497146C2FF4
:100E50008EEB92E00E94FB148C2FCF910C947D05B9
:100E6000CF9108950F931F93CF93DF938EE00E944D
:100E70003612EC018FE00E9436122196880F991FDE
:100E8000C80FD91FC430D10514F0C3E0D0E0809161
:100E9000080190910901C817D90751F00E940C115F
:100EA0006093A6017093A7018093A8019093A90174
:100EB0000E940C110091A6011091A7012091A80198
:100EC0003091A901601B710B820B930B6333710589
:100ED0008105910568F08091230190912401C81744
:100EE000D90731F0D0932401C093230181E001C0E0
:100EF00080E0D0930901C0930801DF91CF911F9149
:100F00000F910895CF93DF93EC01809106019091AA
:100F10000701C817D907F1F1CF3F8FEFD807D1F1FB
:100F2000D0930701C093060168E670E08EEB92E073
:100F30000E9497144AE050E0BE018EEB92E00E94BE
:100F4000B815C130D105A1F024F4CD2B19F560E01E
:100F500010C0C230D10591F02397E1F461E082E046
:100F60000E94001260E083E00E94001260E00FC067
:100F700061E082E00E94001261E005C061E082E071
:100F80000E94001260E083E00E94001261E084E0B1
:100F90000E940012DF91CF9108950F931F93CF937A
:100FA000DF9300D000D000D0CDB7DEB78EEA91E05D
:100FB0000E948F0B0E943207882309F18091230140
:100FC0009091240190930F0180930E0168E673E0E5
:100FD0008EEB92E00E94971460910E0170910F01C8
:100FE000CE0101960E943504BE016F5F7F4F8EEBEC
:100FF00092E00E94E914CE0101960E94CD168091E4
:101000000C0190910D018F3F2FEF920721F48091F9
:101010000E0190910F0190930B0180930A01809132
:101020000A0190910B010E9482078CED91E00E94D1
:101030007E0A833009F441C134F4882309F43AC1AB
:10104000823041F0EDC1843009F46BC1853009F480
:10105000AEC1E6C18091DB01882331F062E573E027
:101060008EEB92E00E94D7148AED91E00E94170F58
:10107000882309F45CC08AED91E00E94E00F298387
:101080003A834B835C836D837E8369817A81882771
:1010900077FD8095982F0E946A1820E030E048EC98
:1010A00052E40E94CF17609314017093150180934E
:1010B0001601909317016D817E8180E090E00E947F
:1010C000681820E030E048EC52E40E94CF176093AB
:1010D000100170931101809312019093130164E445
:1010E00073E08EEB92E00E949714409114015091AE
:1010F0001501609116017091170122E030E08EEB2E
:1011000092E00E94BB1666E373E08EEB92E00E94D1
:10111000971440911001509111016091120170914A
:10112000130122E030E08EEB92E00E94BB1680912A
:1011300022010091DC011091DD01882309F487C0B0
:1011400080910C0190910D010196F1F120911E0109
:1011500030911F01409120015091210160911001B7
:101160007091110180911201909113010E94CB178F
:10117000F80187FF1AC086819781019629F568E1F9
:1011800073E08EEB92E00E94971480911801909189
:1011900019012AE0289FA001299F500D112463E026
:1011A0008CED91E00E94E50A0FC08681978101963F
:1011B00059F069EF72E08EEB92E00E94971463E0C1
:1011C0008CED91E00E94250B20911A0130911B01BA
:1011D00040911C0150911D0160911001709111010D
:1011E00080911201909113010E941A19E091DC0183
:1011F000F091DD011816DCF480859185019609F0E7
:1012000055C06AED72E08EEB92E00E9497148091D7
:101210001801909119012AE0289FA001299F500DE3
:10122000112464E08CED91E00E94E50A3FC08085C6
:1012300091850196D9F16AEB72E08EEB92E00E9403
:10124000971464E08CED91E00E94250B2FC0F8010B
:1012500086819781019659F06BE972E08EEB92E0FE
:101260000E94971463E08CED91E00E94250BE091C1
:10127000DC01F091DD0180859185019659F06BE7E5
:1012800072E08EEB92E00E94971464E08CED91E0A6
:101290000E94250B80910C0190910D01019631F077
:1012A0008FEF9FEF90930D0180930C0142E350E08C
:1012B00062E0B2C00E94DE03B3C06BE472E08EEB6A
:1012C00092E00E94D71480910C0190910D01823020
:1012D000910551F08330910551F0019771F410920E
:1012E0000D0110920C0109C081E090E002C082E083
:1012F00090E090930D0180930C0120910C013091AE
:101300000D0180910E0190910F018217930734F027
:101310008FEF9FEF90930D0180930C016FE272E0CD
:101320002EC060E072E08EEB92E00E94D7148091B4
:101330000C0190910D01019641F480910A01909168
:101340000B0190930D0180930C0180910C01909101
:101350000D018130910541F08230910541F0892BDA
:1013600061F481E090E005C082E090E002C083E09B
:1013700090E090930D0180930C0164EE71E08EEB90
:1013800092E00E94971460910C0170910D01CE01C2
:1013900001960E943504BE016F5F7F4F8EEB92E095
:1013A0000E94E914CE0101960E94CD1639C08091A9
:1013B000AC019091AD01892B81F480910C01909149
:1013C0000D01019651F088E40E947D0581E090E0D6
:1013D0009093AD018093AC011CC080910A01909163
:1013E0000B018130910561F024F4892B71F480E3C5
:1013F0000AC08230910531F0039739F483E303C0CA
:1014000081E301C082E30E947D051092AD0110923C
:10141000AC0145E050E065E08CED91E00E94E50A0A
:1014200026960FB6F894DEBF0FBECDBFDF91CF91E9
:101430001F910F91089546E064EE71E08CED91E00C
:101440000E946E0A8AED91E00E94000F8EEA91E000
:101450000C94330B0F931F93CF93DF93EC018B010D
:1014600081E06115710509F480E08A83882349F0E1
:101470000E940C11980121503109260F371F398322
:101480002883DF91CF911F910F910895EF92FF92E2
:101490000F931F93CF93DF93EC018B018A818823F5
:1014A00071F0E880F9800E940C11C701861B970B30
:1014B00081362AEE920750F0F82EF19401C0F12CFB
:1014C000B801CE010E942A0A8F2D01C080E0DF9171
:1014D000CF911F910F91FF90EF900895FC01CB01E8
:1014E000718360832FEF3FEF33832283448317821E
:1014F000440F50E06FEF70E00C94D91B0F931F93D3
:10150000CF93DF93EC018A819B81009709F045C05E
:101510009C8120E030E00FEF1FEF822F2917C0F4ED
:10152000A901440F551FE881F981E40FF51F40819F
:1015300051812F5F3F4F4115510529F42FEF3FEFA8
:10154000318320833DC04017510738F78A01E5CF2A
:101550000F3F2FEF1207C1F020E08C812817D0F445
:1015600098818981E92FF82FE20FF11DE20FF11D1B
:10157000808191818F3F3FEF930721F0801B910B7A
:10158000918380832F5FE9CF60E070E0CE01059604
:101590000E942A0A1B830A8312C0019671F064E636
:1015A00070E0CE0105960E94460A882341F08A81A8
:1015B0009B8101979B838A8302C08EEF01C08FEFCE
:1015C000DF91CF911F910F9108951F93CF93DF93D8
:1015D000DC0112968D919C911397DC911196CC9120
:1015E000119748175907F8F49C01241B350B70E03C
:1015F00014968C911497781790F4ED2FFC2FE70F29
:10160000F11DE70FF11D808191818F3F1FEF910741
:1016100021F0820F931F918380837F5FE9CF139620
:101620005C934E931297ED2FFC2FE60FF11DE60F02
:10163000F11D12968D919C911397481B590B518364
:101640004083DF91CF911F910895FC01208181811A
:10165000E22FF82FE60FF11DE60FF11D8FEF9FEF40
:10166000918380830895CF93DF93EC0119821882D0
:101670001A821C821B828AE08F831BA61AA66BE447
:1016800071E0CE0105960E94E01B188619A6DF9135
:10169000CF910895EF92FF920F931F93CF93DF9313
:1016A000EC017B018A018A8190E001962BE0289F62
:1016B000B001299F700D1124888199810E94EE1A32
:1016C000998388832A8148E050E0B7013BE0239F5B
:1016D000800D911D11240E94F51B8A81E881F981FA
:1016E0009BE0899FE00DF11D1124128701878A81FB
:1016F0008F5F8A83DF91CF911F910F91FF90EF90C1
:101700000895FC01748363830895AC01465D5F4FC7
:10171000BC016B5F7F4F80E090E00C94041C2F9223
:101720003F924F925F926F927F928F929F92AF9271
:10173000BF92CF92DF92EF92FF920F931F93CF93BE
:10174000DF93EC011C012AE2220E311C2C0185E002
:10175000480E511C5E01A8E0AA0EB11C8EEB92E06F
:101760000E945F12181619060CF055C08EEB92E01D
:101770000E947812182F8F81181334C0A101B20172
:10178000C5010E94041C7C01009749F18A80912CBC
:10179000612C712CC12CD12CC814D904D4F408812B
:1017A0001981060D171D48E050E0B801C7010E94DD
:1017B000E71BBBE06B0E711C892B39F4D80119961D
:1017C000ED91FC911A9709950AC0BFEFCB1ADB0A7D
:1017D000E3CFEB81FC81309711F0C70109951886A2
:1017E00019A6BCCF812F992787FD90950E94BA1B1F
:1017F000892B09F4B3CF89A5803208F0AFCF91E0EF
:10180000980F99A7FE01E80FF11D1087FE01E90F5F
:10181000F11D1086A3CFDF91CF911F910F91FF9003
:10182000EF90DF90CF90BF90AF909F908F907F9080
:101830006F905F904F903F902F900895809120027D
:1018400090E020912102821B9109089520912102AC
:1018500080912002281750F4E22FF0E0EE5DFD4F5A
:10186000808190E02F5F2093210208958FEF9FEFFA
:101870000895E091210280912002E81730F4F0E011
:10188000EE5DFD4F808190E008958FEF9FEF08950A
:101890000895CF92DF92EF92FF920F931F93CF9311
:1018A000DF937C01CB018A012091FC01222389F086
:1018B000EB016B01C40ED51ECC15DD0569F06991F5
:1018C000D701ED91FC910190F081E02DC7010995C0
:1018D000F3CF642F0E94AA0DC801DF91CF911F9111
:1018E0000F91FF90EF90DF90CF900895CF93DF930B
:1018F0001F92CDB7DEB769832091FC012223D1F07E
:101900002091FD01203240F021E030E0FC013383E2
:10191000228380E090E015C08091FE01E82FF0E086
:10192000E150FE4F998190838F5F8093FE018093F9
:10193000FD0105C061E0CE0101960E94AA0D81E083
:1019400090E00F90DF91CF910895FC0113821282F5
:1019500048EE53E060E070E044835583668377830C
:1019600088E791E09183808308951092210210927C
:1019700020021092FE011092FD010C94F50C862FAE
:10198000413208F040E262E272E00E94130D1092D0
:10199000210280932002089521E00C94BF0C81E085
:1019A0008093FC0160931F021092FE011092FD01D2
:1019B00008950C94CF0C0F93062F21E04091FD0168
:1019C0006FEF71E080911F020E94570D1092FE018F
:1019D0001092FD011092FC010F91089561E00C94AA
:1019E000DB0C80EF91E00C94A50C1092AF0281E02B
:1019F0008093AD021092AC0261E082E10E9400127D
:101A000061E083E10E940012E9EBF0E080818E7FCB
:101A1000808380818D7F808388E48093B80085E413
:101A20008093BC000895413208F03FC09091AF020E
:101A30009111FCCF91E09093AF022093AD022FEF74
:101A40002093420210928702240F209386029093E3
:101A5000AE029091AE02880F892B8093AE028091E6
:101A6000AC02813041F41092AC028091AE028093BE
:101A7000BB0085EC01C085EE8093BC008091AF0275
:101A80008130E1F380918702841710F4409187023E
:101A900028E832E0FB01D9018A2F821B841718F451
:101AA0008D918193F9CF842F089580E008950F934D
:101AB000413208F046C09091AF029111FCCF92E004
:101AC0009093AF020093AD029FEF90934202109269
:101AD000870240938602FB0168E872E0DB019A2FDF
:101AE000961B941718F491919D93F9CF1092AE0222
:101AF0009091AE02880F892B8093AE028091AC0248
:101B0000813041F41092AC028091AE028093BB0010
:101B100085EC01C085EE8093BC00222321F08091EA
:101B2000AF028230E1F3809142028F3F61F08091F9
:101B30004202803251F080914202803341F483E0CE
:101B400007C081E005C080E003C082E001C084E0FE
:101B50000F910895613298F42091AF02243089F4F6
:101B600060936402FC0186E692E0DC012A2F281BC8
:101B7000261718F421912D93F9CF80E0089581E084
:101B8000089582E0089585ED8093BC008091BC00AB
:101B900084FDFCCF1092AF02089585EC8093BC00C9
:101BA0001092AF0208951F920F920FB60F92112458
:101BB0002F933F934F935F936F937F938F939F9355
:101BC000AF93BF93EF93FF938091B900887F8036E6
:101BD00009F49CC068F5883209F45BC090F4803148
:101BE00009F454C038F4882309F4F5C0883009F4A6
:101BF0004DC0F5C0883109F44CC0803209F45DC095
:101C0000EEC0803409F468C048F4803309F455C04C
:101C1000883309F0E4C080934202A8C0803509F4FB
:101C20004FC0883509F45DC0883409F0D8C0D5C0EC
:101C3000883909F4C6C0A8F4883709F467C038F4B5
:101C4000883609F463C0803709F460C0C8C088389A
:101C500009F4B7C0803909F45FC0803809F0BFC00B
:101C60005BC0803B09F485C038F4803A09F466C053
:101C7000883A09F47EC0B3C0803C09F4A6C0883C11
:101C800009F4A3C0883B09F489C0A9C08091AE02C1
:101C900010C09091870280918602981770F5E091AC
:101CA000870281E08E0F80938702F0E0E857FD4FB6
:101CB00080818093BB0085EC85C0809342028DC0FB
:101CC000E091870281E08E0F809387028091BB00B4
:101CD000F0E0E857FD4F8083909187028091860263
:101CE0006DC0E091870281E08E0F80938702809122
:101CF000BB00F0E0E857FD4F80838091AD02811179
:101D00006CC081E08093AC0284EA60C083E0809381
:101D1000AF0210924302CFCF80914302803208F08D
:101D200050C0E091430281E08E0F80934302809186
:101D3000BB00F0E0EC5BFD4F8083BDCF80914302A0
:101D4000803230F4E0914302F0E0EC5BFD4F108212
:101D50000E94C30D6091430270E0E091A802F091EF
:101D6000A90284E492E00995109243020E94CD0DED
:101D700036C084E08093AF02109265021092640234
:101D8000E091AA02F091AB02099580916402811161
:101D900005C081E08093640210926602E0916502C2
:101DA00081E08E0F80936502F0E0EA59FD4F80815B
:101DB0008093BB009091650280916402981708F4AB
:101DC0007ACF85E88093BC000AC085EC8093BC0084
:101DD0001092AF0204C0109242020E94C30DFF9104
:101DE000EF91BF91AF919F918F917F916F915F9193
:101DF0004F913F912F910F900FBE0F901F9018950C
:101E0000089580EF91E00E94B50C60E470E080EFEF
:101E100091E00E94D90C80EF91E00E94EE0C8111BC
:101E200003C081E08093B0028091B0020895809158
:101E3000B0020895EF92FF920F931F93CF93DF9319
:101E40008B017A0160E470E080EF91E00E94D90C90
:101E5000C0E0D0E0CE15DF0554F40C0F1D1FF801D3
:101E6000608180EF91E00E94760C2196F3CF80EFA5
:101E700091E0DF91CF911F910F91FF90EF900C9423
:101E8000EE0CCF93DF9300D0CDB7DEB7662311F011
:101E90002EE301C02AE33091290139832A8342E0ED
:101EA00050E0BE016F5F7F4F0E941A0F0F900F909E
:101EB000DF91CF910895EF92FF920F931F93CF93ED
:101EC000DF937B01EA0160E470E080EF91E00E9423
:101ED000CC0C80EF91E00E941E0C8C179D07CCF378
:101EE0008701C8018E199F098C179D0744F480EF64
:101EF00091E00E94260CF80181938F01F2CF81E0DE
:101F000090E0DF91CF911F910F91FF90EF90089596
:101F10000F931F93CF93DF93EC018A0142E050E0CF
:101F20000E941A0F42E050E0B801CE01DF91CF913C
:101F30001F910F910C945B0FCF93DF9300D0CDB71F
:101F4000DEB7AE014F5F5F4F6AE271E00E94880F1B
:101F50002981822F90E0A0E0B0E02227382F492F7E
:101F60005A2F8A81282BA4EAB4E40E94B6198D5412
:101F700092410F900F90DF91CF910895CF93DF930F
:101F800000D0CDB7DEB7AE014F5F5F4F6BE271E0BF
:101F90000E94880F2981822F90E0A0E0B0E02227E4
:101FA000382F492F5A2F8A81282BA4EDB0E30E94A5
:101FB000B619885592400F900F90DF91CF910895F8
:101FC000CF92DF92FF920F931F93CF93DF9300D0B6
:101FD00000D000D0CDB7DEB76C010E94BE0F182F25
:101FE000F92EC6010E949C0F082F9A838983BC0199
:101FF000882777FD8095982F0E946A1826E636E696
:1020000046EE5FE30E941E1920E030E048E455E40C
:102010000E9467170E9437187C836B831D83FE82A2
:10202000202F3A81462F5C81612F7F2D80E090E048
:1020300026960FB6F894DEBF0FBECDBFDF91CF91CD
:102040001F910F91FF90DF90CF9008950F931F93F2
:10205000CF93DF93EC018B0142E050E067E271E047
:102060000E941A0F46E050E0B801CE010E945B0FBB
:1020700042E050E065E271E0CE010E941A0FB80123
:102080006A5F7F4F46E050E0CE010E945B0F81E027
:1020900090E0DF91CF911F910F910895CF93DF933F
:1020A000CDB7DEB72C970FB6F894DEBF0FBECDBF0D
:1020B000BE016F5F7F4F0E9426108F8190E02C96AB
:1020C0000FB6F894DEBF0FBECDBFDF91CF9108955C
:1020D0001F920F920FB60F9211242F933F934F939D
:1020E0005F936F937F938F939F93AF93BF93EF9380
:1020F000FF938091B1029091B202892B29F0E09177
:10210000B102F091B2020995FF91EF91BF91AF91A9
:102110009F918F917F916F915F914F913F912F91FF
:102120000F900FBE0F901F9018951F920F920FB631
:102130000F9211242F933F934F935F936F937F934D
:102140008F939F93AF93BF93EF93FF938091B302CD
:102150009091B402892B29F0E091B302F091B4027E
:102160000995FF91EF91BF91AF919F918F917F91D1
:102170006F915F914F913F912F910F900FBE0F90F4
:102180001F9018951F920F920FB60F9211242F9344
:102190003F938F939F93AF93BF938091B60290919B
:1021A000B702A091B802B091B9023091B50223E014
:1021B000230F2D3720F40196A11DB11D05C026E87F
:1021C000230F0296A11DB11D2093B5028093B60284
:1021D0009093B702A093B802B093B9028091BA026B
:1021E0009091BB02A091BC02B091BD020196A11DCD
:1021F000B11D8093BA029093BB02A093BC02B0932E
:10220000BD02BF91AF919F918F913F912F910F9000
:102210000FBE0F901F9018952FB7F8946091B602DB
:102220007091B7028091B8029091B9022FBF0895C2
:102230003FB7F8948091BA029091BB02A091BC0282
:10224000B091BD0226B5A89B05C02F3F19F001969D
:10225000A11DB11D3FBF6627782F892F9A2F620FCE
:10226000711D811D911D42E0660F771F881F991F08
:102270004A95D1F70895CF92DF92EF92FF92CF93D4
:10228000DF936B017C010E941811EB01C114D10492
:10229000E104F10489F00E9465170E9418116C1B7B
:1022A0007D0B683E734090F381E0C81AD108E108C5
:1022B000F108C851DC4FEACFDF91CF91FF90EF904A
:1022C000DF90CF900895789484B5826084BD84B502
:1022D000816084BD85B5826085BD85B5816085BD21
:1022E000EEE6F0E0808181608083E1E8F0E010823A
:1022F000808182608083808181608083E0E8F0E07B
:10230000808181608083E1EBF0E080818460808364
:10231000E0EBF0E0808181608083EAE7F0E080819B
:1023200084608083808182608083808181608083FB
:102330008081806880831092C1000895833081F08D
:1023400028F4813099F08230A1F008958730A9F007
:102350008830B9F08430D1F4809180008F7D03C043
:10236000809180008F7780938000089584B58F7767
:1023700002C084B58F7D84BD08958091B0008F77B1
:1023800003C08091B0008F7D8093B0000895CF93FB
:10239000DF9390E0FC01EF5CFA4F2491FC01EB5BD2
:1023A000FA4F8491882349F190E0880F991FFC012E
:1023B000E359FA4FA591B4918D599A4FFC01C591FB
:1023C000D4919FB7611108C0F8948C912095822315
:1023D0008C93888182230AC0623051F4F8948C91E6
:1023E000322F309583238C938881822B888304C07D
:1023F000F8948C91822B8C939FBFDF91CF9108959D
:102400000F931F93CF93DF931F92CDB7DEB7282F83
:1024100030E0F901E35EFA4F8491F901EF5CFA4F85
:102420001491F901EB5BFA4F04910023C9F0882362
:1024300021F069830E949E116981E02FF0E0EE0F88
:10244000FF1FED59FA4FA591B4919FB7F8948C9165
:10245000611103C01095812301C0812B8C939FBF14
:102460000F90DF91CF911F910F910895CF93DF933C
:10247000282F30E0F901E35EFA4F8491F901EF5C17
:10248000FA4FD491F901EB5BFA4FC491CC2391F050
:1024900081110E949E11EC2FF0E0EE0FFF1FE75A12
:1024A000FA4FA591B4912C912D2381E090E021F475
:1024B00080E002C080E090E0DF91CF910895FC01C0
:1024C000818D228D90E0805C9F4F821B91098F73DC
:1024D00099270895FC01918D828D981731F0828D96
:1024E000E80FF11D858D90E008958FEF9FEF08951F
:1024F000FC01918D828D981761F0828DDF01A80F0C
:10250000B11D5D968C91928D9F5F9F73928F90E02D
:1025100008958FEF9FEF08958CEF93E1892B49F099
:1025200080E090E0892B29F00E94FC1381110C942B
:1025300000000895FC01848DDF01A80FB11DA35A8E
:10254000BF4F2C91848D90E001968F739927848FD3
:10255000A689B7892C93A089B1898C9180648C93CA
:10256000938D848D981306C00288F389E02D8081B5
:102570008F7D80830895CF93DF93EC01888D88232E
:10258000C9F0EA89FB89808185FD05C0A889B989E0
:102590008C9186FD0FC00FB607FCF5CF808185FFBB
:1025A000F2CFA889B9898C9185FFEDCFCE010E9429
:1025B0009A12E7CFDF91CF910895CF92DF92FF92E9
:1025C0000F931F93CF93DF931F92CDB7DEB76C01AC
:1025D00081E0D60158968C9358975B969C915B97B7
:1025E0005C968C915C97981307C05096ED91FC9186
:1025F0005197808185FD2EC0F601038D10E00F5F9D
:102600001F4F0F731127F02EF601848DF81211C0A1
:102610000FB607FCF9CFD6015096ED91FC9151977A
:10262000808185FFF1CFC60169830E949A1269817A
:10263000EBCF838DE80FF11DE35AFF4F6083D60186
:102640005B960C935B975296ED91FC91539780812A
:1026500080620CC0D6015696ED91FC91579760832D
:102660005096ED91FC91519780818064808381E048
:1026700090E00F90DF91CF911F910F91FF90DF902D
:10268000CF900895BF92CF92DF92EF92FF92CF93B7
:10269000DF93EC016A017B01B22EE889F98982E0BF
:1026A0008083411581EE580761057105A1F060E056
:1026B00079E08DE390E0A70196010E9485192150F1
:1026C00031094109510956954795379527952115A7
:1026D00080E1380798F0E889F989108260E874E8A9
:1026E0008EE190E0A70196010E94851921503109E1
:1026F000410951095695479537952795EC85FD85F4
:102700003083EE85FF852083188EEC89FD89B082A9
:10271000EA89FB89808180618083EA89FB898081E5
:1027200088608083EA89FB89808180688083EA8968
:10273000FB8980818F7D8083DF91CF91FF90EF9027
:10274000DF90CF90BF9008951F920F920FB60F9217
:1027500011242F938F939F93EF93FF93E091CE02D9
:10276000F091CF028081E091D402F091D50282FDF8
:1027700012C090818091D7028F5F8F732091D80211
:10278000821751F0E091D702F0E0E254FD4F958FAF
:102790008093D70201C08081FF91EF919F918F912B
:1027A0002F910F900FBE0F901F9018951F920F92B0
:1027B0000FB60F9211242F933F934F935F936F9314
:1027C0007F938F939F93AF93BF93EF93FF938EEB82
:1027D00092E00E949A12FF91EF91BF91AF919F9169
:1027E0008F917F916F915F914F913F912F910F90BA
:1027F0000FBE0F901F9018958EEB92E00E945F1213
:1028000021E0892B09F420E0822F08951092C10263
:102810001092C00288EE93E0A0E0B0E08093C20284
:102820009093C302A093C402B093C50288E891E0DC
:102830009093BF028093BE0285EC90E09093CB0210
:102840008093CA0284EC90E09093CD028093CC02F6
:1028500080EC90E09093CF028093CE0281EC90E0E8
:102860009093D1028093D00282EC90E09093D302B7
:102870008093D20286EC90E09093D5028093D402AC
:102880001092D7021092D8021092D9021092DA0256
:10289000089508950E9463110E9449140E941B0626
:1028A000CCE8D2E10E94CD072097E1F30E948C1280
:1028B000F9CFCF92DF92EF92FF920F931F93CF93B6
:1028C000DF936C017A01EB01E60EF71E00E010E0E9
:1028D000CE15DF0561F06991D601ED91FC91019073
:1028E000F081E02DC6010995080F191FF1CFC8012D
:1028F000DF91CF911F910F91FF90EF90DF90CF90DC
:1029000008956115710581F0DB010D900020E9F754
:10291000AD0141505109461B570BDC01ED91FC9173
:102920000280F381E02D099480E090E00895EF9219
:10293000FF920F931F93CF93DF938C01FB01C0E0B5
:10294000D0E064917F018FEFE81AF80A662361F006
:10295000D801ED91FC910190F081E02DC80109951D
:10296000C80FD91FF701EDCFCE01DF91CF911F9195
:102970000F91FF90EF900895DC01ED91FC91DB0148
:1029800014964D915C9115976D917C910280F38125
:10299000E02D09940C948114DC01ED91FC910190DF
:1029A000F081E02D099464E971E00C9481140F9397
:1029B0001F93CF93DF93EC010E9497148C01CE01FB
:1029C0000E94D314800F911FDF91CF911F910F911F
:1029D00008950F931F93CF93DF93EC010E94BC14D3
:1029E0008C01CE010E94D314800F911FDF91CF91F3
:1029F0001F910F9108950F931F93CF93DF93EC01D5
:102A00000E94CC148C01CE010E94D314800F911F20
:102A1000DF91CF911F910F9108958F929F92AF9266
:102A2000BF92CF92DF92EF92FF920F931F93CF93BB
:102A3000DF93CDB7DEB7A1970FB6F894DEBF0FBE18
:102A4000CDBF7C01C42EE52FCB01D22E19A221E0EF
:102A50002D1510F02AE0D22E8E010F5D1F4F8D2C08
:102A6000912CA12CB12C6C2D7E2FA50194010E94DC
:102A700085198C2DD29E80191124015011098A309C
:102A800014F4805D01C0895CF80180832115310553
:102A90004105510521F0C22EE32FCA01E4CFB80150
:102AA000C7010E948114A1960FB6F894DEBF0FBE35
:102AB000CDBFDF91CF911F910F91FF90EF90DF90ED
:102AC000CF90BF90AF909F908F900895CF92DF925C
:102AD000EF92FF920F931F93CF93DF93EC016A0164
:102AE0007B012115310579F4E881F9810190F081AC
:102AF000E02D642FDF91CF911F910F91FF90EF9008
:102B0000DF90CF9009942A303105E9F477FF1AC09D
:102B10006DE20E94CC148C0144275527BA014C1950
:102B20005D096E097F092AE0CE010E940D15800F14
:102B3000911FDF91CF911F910F91FF90EF90DF9048
:102B4000CF9008952AE0B701A601CE01DF91CF9181
:102B50001F910F91FF90EF90DF90CF900C940D1587
:102B60009A01AB01662757FD6095762F0C94661588
:102B70000F931F93CF93DF93EC019A01AB0166276C
:102B800057FD6095762F0E9466158C01CE010E943C
:102B9000D314800F911FDF91CF911F910F91089552
:102BA0004F925F926F927F928F929F92AF92BF925D
:102BB000CF92DF92EF92FF920F931F93CF93DF9309
:102BC000EC016A017B01B22E9A01AB01C701B6018B
:102BD0000E948119882319F067E971E027C0260156
:102BE0003701E89477F82FEF3FEF4FE75FE7C30136
:102BF000B2010E94811981110DC02FEF3FEF4FE705
:102C00005FE7C301B2010E94CB1718161CF46BE9F1
:102C100071E00CC02FEF3FEF4FE75FE4C701B60153
:102C20000E941A191816ACF46FE971E0CE01DF9119
:102C3000CF911F910F91FF90EF90DF90CF90BF90B9
:102C4000AF909F908F907F906F905F904F900C947B
:102C500081142FEF3FEF4FE75FECC701B6010E94F1
:102C6000CB1787FDE1CF20E030E0A901C701B60115
:102C70000E94CB1787FF0AC06DE2CE010E94CC14E0
:102C80008C01F7FAF094F7F8F09402C000E010E03D
:102C9000A12C60E070E080E09FE3AB1441F020E005
:102CA00030E040E251E40E94CF17A394F6CF9B019D
:102CB000AC01C701B6010E9467176B017C010E943D
:102CC0003C182B013C010E9468189B01AC01C70114
:102CD000B6010E9466176B017C012AE0B301A201D4
:102CE000CE010E940D15080F191FBB2039F063EAB1
:102CF00071E0CE010E948114080F191F7B2C7720F0
:102D000041F120E030E040E251E4C701B6010E9409
:102D10001E196B017C010E9437184B01AA2497FCF5
:102D2000A094BA2C2AE030E0B501A401CE010E94A3
:102D30006615080F191FC501B4010E946A189B018E
:102D4000AC01C701B6010E9466176B017C017A9441
:102D5000D6CFC801DF91CF911F910F91FF90EF90D7
:102D6000DF90CF90BF90AF909F908F907F906F90AB
:102D70005F904F9008950F931F93CF93DF93EC01D3
:102D80000E94D0158C01CE010E94D314800F911F98
:102D9000DF91CF911F910F910895FC018081918166
:102DA0000C945F1ACF93DF93EC018881998100978F
:102DB00011F00E945F1A198218821D821C821B82E8
:102DC0001A82DF91CF9108950F931F93CF93DF93D2
:102DD000EC018B016F5F7F4F888199810E94EE1A11
:102DE000009731F0998388831B830A8381E001C0B7
:102DF00080E0DF91CF911F910F910895CF93DF93E2
:102E0000EC0188819981892B29F08A819B81861721
:102E1000970760F4CE010E94E416882341F08C816C
:102E20009D81892B19F4E881F981108281E0DF917D
:102E3000CF910895EF92FF920F931F93CF93DF935B
:102E4000EC017B018A01BA010E94FE16811104C0C7
:102E5000CE010E94D21607C01D830C83B701888162
:102E600099810E94C01BCE01DF91CF911F910F91DC
:102E7000FF90EF9008950F931F93CF93DF9300D0AF
:102E8000CDB7DEB78C016115710561F0CB016983A7
:102E90007A830E94C71BAC0169817A81C8010E94B4
:102EA0001A1702C00E94D216C8010F900F90DF912E
:102EB000CF911F910F910895FC011182108213820E
:102EC0001282158214820C943B1708955058BB2728
:102ED000AA270ED075C166D130F06BD120F031F445
:102EE0009F3F11F41EF45BC10EF4E095E7FB51C166
:102EF000E92F77D180F3BA17620773078407950724
:102F000018F071F49EF58FC10EF4E0950B2EBA2FD8
:102F1000A02D0B01B90190010C01CA01A0011124DF
:102F2000FF27591B99F0593F50F4503E68F11A168B
:102F3000F040A22F232F342F4427585FF3CF46951C
:102F400037952795A795F0405395C9F77EF41F163E
:102F5000BA0B620B730B840BBAF09150A1F0FF0F08
:102F6000BB1F661F771F881FC2F70EC0BA0F621FF4
:102F7000731F841F48F4879577956795B795F795E4
:102F80009E3F08F0B3CF9395880F08F09927EE0F76
:102F9000979587950895D9D008F481E008950CD0CD
:102FA0000FC107D140F0FED030F021F45F3F19F09F
:102FB000F0C0511139C1F3C014D198F39923C9F36A
:102FC0005523B1F3951B550BBB27AA27621773072F
:102FD000840738F09F5F5F4F220F331F441FAA1FE3
:102FE000A9F333D00E2E3AF0E0E830D091505040A3
:102FF000E695001CCAF729D0FE2F27D0660F771F51
:10300000881FBB1F261737074807AB07B0E809F032
:10301000BB0B802DBF01FF2793585F4F2AF09E3FC7
:10302000510568F0B6C000C15F3FECF3983EDCF399
:10303000869577956795B795F7959F5FC9F7880F40
:10304000911D9695879597F90895E1E0660F771F92
:10305000881FBB1F621773078407BA0720F0621B23
:10306000730B840BBA0BEE1F88F7E095089504D01C
:103070006894B111D9C00895BCD088F09F5790F0E2
:10308000B92F9927B751A0F0D1F0660F771F881F8D
:10309000991F1AF0BA95C9F712C0B13081F0C3D0A8
:1030A000B1E00895C0C0672F782F8827B85F39F046
:1030B000B93FCCF3869577956795B395D9F73EF4EC
:1030C00090958095709561957F4F8F4F9F4F089594
:1030D000E89409C097FB3EF49095809570956195B2
:1030E0007F4F8F4F9F4F9923A9F0F92F96E9BB2768
:1030F0009395F695879577956795B795F111F8CFE4
:10310000FAF4BB0F11F460FF1BC06F5F7F4F8F4F4E
:103110009F4F16C0882311F096E911C0772321F044
:103120009EE8872F762F05C0662371F096E8862FDC
:1031300070E060E02AF09A95660F771F881FDAF733
:10314000880F9695879597F90895990F0008550F60
:10315000AA0BE0E8FEEF16161706E807F907C0F01D
:1031600012161306E407F50798F0621B730B840B25
:10317000950B39F40A2661F0232B242B252B21F4FF
:1031800008950A2609F4A140A6958FEF811D811D9F
:10319000089597F99F6780E870E060E008959FEFD9
:1031A00080EC089500240A941616170618060906DE
:1031B000089500240A9412161306140605060895AD
:1031C000092E0394000C11F4882352F0BB0F40F435
:1031D000BF2B11F460FF04C06F5F7F4F8F4F9F4F75
:1031E000089557FD9058440F551F59F05F3F71F0F7
:1031F0004795880F97FB991F61F09F3F79F087955E
:103200000895121613061406551FF2CF4695F1DFE6
:1032100008C0161617061806991FF1CF8695710576
:10322000610508940895E894BB2766277727CB01AA
:1032300097F908958ADF08F48FEF08950BD0C0CF77
:10324000B1DF28F0B6DF18F0952309F0A2CFA7CFA1
:103250001124EACFC6DFA0F3959FD1F3950F50E07C
:10326000551F629FF001729FBB27F00DB11D639F38
:10327000AA27F00DB11DAA1F649F6627B00DA11DDE
:10328000661F829F2227B00DA11D621F739FB00D84
:10329000A11D621F839FA00D611D221F749F3327F4
:1032A000A00D611D231F849F600D211D822F762F8D
:1032B0006A2F11249F5750408AF0E1F088234AF08A
:1032C000EE0FFF1FBB1F661F771F881F91505040D6
:1032D000A9F79E3F510570F05CCFA6CF5F3FECF39E
:1032E000983EDCF3869577956795B795F795E795C2
:1032F0009F5FC1F7FE2B880F911D9695879597F9D3
:10330000089523DF880B990B0895A1E21A2EAA1BBA
:10331000BB1BFD010DC0AA1FBB1FEE1FFF1FA21785
:10332000B307E407F50720F0A21BB30BE40BF50B82
:10333000661F771F881F991F1A9469F7609570950B
:10334000809590959B01AC01BD01CF010895A29F8E
:10335000B001B39FC001A39F700D811D1124911D69
:10336000B29F700D811D1124911D08950E94A7190F
:10337000A59F900DB49F900DA49F800D911D1124C9
:103380000895EE0FFF1F0590F491E02D0994CF935F
:10339000DF938230910510F482E090E0E0915D03CC
:1033A000F0915E0320E030E0A0E0B0E0309739F12A
:1033B0004081518148175907B8F04817590771F4EF
:1033C00082819381109729F013969C938E93129784
:1033D0002CC090935E0380935D0327C021153105B7
:1033E00031F04217530718F0A901DB0101C0EF01CA
:1033F0009A01BD01DF010280F381E02DD7CF2115B5
:103400003105F9F0281B390B2430310580F48A810D
:103410009B816115710521F0FB019383828304C0B8
:1034200090935E0380935D03FE01329644C0FE01DB
:10343000E20FF31F8193919322503109398328833E
:103440003AC020915B0330915C03232B41F420911F
:1034500002013091030130935C0320935B032091C0
:103460000001309101012115310541F42DB73EB71E
:103470004091040150910501241B350BE0915B0341
:10348000F0915C03E217F307A0F42E1B3F0B281703
:10349000390778F0AC014E5F5F4F2417350748F0CD
:1034A0004E0F5F1F50935C0340935B038193919396
:1034B00002C0E0E0F0E0CF01DF91CF910895CF931B
:1034C000DF93009709F487C0FC01329713821282C0
:1034D000C0915D03D0915E03209781F420813181FA
:1034E000280F391F80915B0390915C03821793072B
:1034F00079F5F0935C03E0935B036DC0DE0120E09F
:1035000030E0AE17BF0750F412964D915C911397BF
:103510009D014115510509F1DA01F3CFB383A2836F
:1035200040815181840F951F8A179B0771F48D91FB
:103530009C911197840F951F029691838083129618
:103540008D919C911397938382832115310529F4E2
:10355000F0935E03E0935D033EC0D9011396FC93A4
:10356000EE9312974D915D91A40FB51FEA17FB07DB
:1035700079F480819181840F951F0296D90111966B
:103580009C938E938281938113969C938E93129732
:10359000E0E0F0E08A819B81009719F0FE01EC01E8
:1035A000F9CFCE01029628813981820F931F209195
:1035B0005B0330915C032817390769F4309729F4CD
:1035C00010925E0310925D0302C013821282D093A8
:1035D0005C03C0935B03DF91CF910895A0E0B0E05E
:1035E000E4EFFAE10C94321CEC01CB01209719F4C2
:1035F0000E94C719B8C0FE01E60FF71F9E012250B6
:103600003109E217F30708F4ACC0D9010D911C9100
:10361000119706171707B8F00530110508F49FC079
:10362000A801445051094617570708F498C00250A2
:103630001109061B170B019311936D937C93CF0116
:103640000E945F1A8CC05B01A01AB10A4E01800E65
:10365000911EA0915D03B0915E03612C712C60E01E
:1036600070E0109709F449C0A815B905C9F5ED90A7
:10367000FC901197670142E0C40ED11CCA14DB0410
:1036800078F147018A189B08640142E0C40ED11CFE
:103690001296BC9012971396AC91B5E0CB16D1045C
:1036A00040F0B282A38391828082D9018D939C9352
:1036B00009C00E5F1F4F0E0D1F1DF90111830083FE
:1036C000EB2DFA2F6115710531F0DB011396FC9398
:1036D000EE93129744C0F0935E03E0935D033FC006
:1036E0006D917C9111976616770608F43B01BD0138
:1036F00012960D90BC91A02DB4CF60915B03709198
:103700005C0368157905E9F468167906D0F44091F0
:103710000001509101014115510541F44DB75EB7CB
:103720006091040170910501461B570BE417F507E2
:10373000C0F4F0935C03E0935B03F9019183808311
:103740000EC00E94C7197C01009759F0A801BE0164
:103750000E94D01BCE010E945F1AC70104C0CE0197
:1037600002C080E090E0CDB7DEB7EEE00C944E1CD6
:10377000803209F091116FC080528F55E0F70895A3
:10378000FB01DC0105900D920020E1F70895FC019A
:1037900005900020E9F7809590958E0F9F1F089562
:1037A000FB01DC0102C001900D9241505040D8F75E
:1037B0000895DC0101C06D9341505040E0F7089539
:1037C000FB01DC0101900D920020E1F70895FB015F
:1037D000DC014150504030F08D910190801919F476
:1037E0000020B9F7881B990B0895FB01DC014150BB
:1037F000504048F001900D920020C9F701C01D9281
:1038000041505040E0F70895FA01A191B08100972E
:1038100019F41097E1F0CD01DC01CD010D900020ED
:1038200011F4C00113C0FB012191222319F02015CE
:10383000D9F7F3CFFB012191201519F41E921196AF
:1038400006C02223C1F70D900020A1F7D001FA0194
:10385000A193B08308959927882708952F923F92C6
:103860004F925F926F927F928F929F92AF92BF9290
:10387000CF92DF92EF92FF920F931F93CF93DF933C
:10388000CDB7DEB7CA1BDB0B0FB6F894DEBF0FBE99
:10389000CDBF09942A88398848885F846E847D84E6
:1038A0008C849B84AA84B984C884DF80EE80FD80E8
:1038B0000C811B81AA81B981CE0FD11D0FB6F8945E
:0E38C000DEBF0FBECDBFED010895F894FFCF1F
:1038CE0000005F038000FFFFFFFFFFFFFFFF02000E
:1038DE00000080BF000080BF14000000AA4200005C
:1038EE00A04201FFFFFCC9FA0FE6E0E5534937306D
:1038FE000054656D70657261747572653A2000488A
:10390E00756D69646974793A202020200068616EB3
:10391E006700737461747573006175746F006D6107
:10392E006E75616C00646973700073706565640018
:10393E000001020300000000760C490C1E0C260C40
:10394E00390C480C00000000DD1259145F12781279
:10395E006A12BB120D0A006E616E00696E66006F10
:06396E007666002E000049
:00000001FF
